:100000000C94E4000C940C010C940C010C940C0165
:100010000C940C010C940C010C940C010C940C012C
:100020000C940C010C940C010C940C010C940C011C
:100030000C940C010C940C010C940C010C940C010C
:100040000C94E3100C940C010C9422130C94651383
:100050000C940C010C940C010C940C010C940C01EC
:100060000C940C010C940C0145000082000040002F
:100070002000010800060400010000000700020142
:10008000000003040600000000000000000102045C
:10009000081020408001020408102001020408100A
:1000A0002004040404040404040202020202020301
:1000B000030303030300000000250028002B0000B9
:1000C000000000240027002A0000407A10F35A00A4
:1000D000A0724E18090010A5D4E80000E876481771
:1000E0000000E40B54020000CA9A3B000000E1F556
:1000F00005000080969800000040420F000000A01C
:100100008601000000102700000000E80300000046
:10011000006400000000000A000000000001000070
:100120000000002C76D888DC674F0823DFC1DFAEE3
:1001300059E1B1B796E5E3E453C63AE651997696AC
:10014000E8E6C28426EB898C9B62ED407C6FFCEF75
:10015000BC9C9F40F2BAA56FA5F490055A2AF75CA3
:10016000936B6CF9676DC11BFCE0E40D47FEF52055
:10017000E6B500D0ED902E0300943577050080841D
:100180001E080000204E0A000000C80C3333333331
:100190000F986E12831141EF8D2114893BE655169D
:1001A000CFFEE6DB18D1844B381BF77C1D901DA4D5
:1001B000BBE424203284725E228100C9F124ECA1C8
:1001C000E53D27005405A01311241FBECFEFD8E052
:1001D000DEBFCDBF12E0A0E0B1E0ECE9F7E302C082
:1001E00005900D92AA3AB107D9F717E0AAEAB2E052
:1001F00001C01D92A63AB107E1F711E0C8ECD1E0C9
:1002000004C02297FE010E943916C43CD107C9F7E9
:100210000E9455120C94CC1B0C940000DC01169625
:10022000ED91FC9117979F012F5F3F4F17963C93DD
:100230002E931697608381E090E00895CF93DF932B
:10024000EC01880F991FFC01E050FF4F21E030E0E6
:1002500031832083FC01EA5FFE4F61E080810E94D0
:100260001F12FE01EE0FFF1FEE0FFF1FE655FD4FA1
:100270001082118212821382DF91CF910895CF9361
:10028000DF93EC01880F991FFC01E050FF4F1182B2
:100290001082FC01EA5FFE4F60E080810E941F1225
:1002A0000E942D11FE01EE0FFF1FEE0FFF1FE655FE
:1002B000FD4F6083718382839383DF91CF91089593
:1002C0008F929F92AF92BF92CF92DF92EF92FF9266
:1002D0000F931F93CF93DF931092B7021092B60241
:1002E00060E08EE00E94E6110AEA12E060E0E62E8D
:1002F00061E0F62EC6E0D1E088248394912CD801E9
:100300001D921D921D921D928D016701F701819230
:1003100091927F0161E088810E94E611D6016C9183
:10032000888122960E941F12B2E0063B1B0739F714
:10033000109249061092480680E991E0ECEBF2E059
:10034000DF019C011D9221503040E1F74AE062E15B
:1003500071E084EF91E00E948205811101C0FFCF1E
:1003600020E030E040E050E060E070E08EE091E0BE
:10037000DF91CF911F910F91FF90EF90DF90CF9081
:10038000BF90AF909F908F900C94A60583309105FD
:1003900010F40C941E0108958330910510F40C9410
:1003A0003F010895AF92BF92CF92DF92EF92FF92FA
:1003B0000F931F93CF93DF93EC01009709F4A4C030
:1003C000FC0101900020E9F78F0101501109081B81
:1003D000190B6C01E12CF12C5801F1E0AF1AB108B6
:1003E000E016F1060CF090C0EA14FB040CF080C09B
:1003F000F60180818D3009F07BC0FE01EE0DFF1DFE
:1004000081818A3009F074C0F601108263E471E0E2
:10041000CE010E947D16892B11F00C9400006EE431
:1004200071E0CE010E947D16892B21F080E090E0E2
:100430000E943F0165E571E0CE010E947D16892B87
:1004400021F080E090E00E941E016DE571E0CE0198
:100450000E947D16892B21F081E090E00E943F01EF
:1004600064E671E0CE010E947D16892B21F081E0C7
:1004700090E00E941E016CE671E0CE010E947D16A4
:10048000892B21F082E090E00E943F0163E771E058
:10049000CE010E947D16892B21F082E090E00E941F
:1004A0001E016BE771E0CE010E947D16892B61F081
:1004B00080E090E00E94CC0181E090E00E94CC01BD
:1004C00082E090E00E94CC0162E871E0CE010E94DF
:1004D0007D16892B79F080E090E00E94C60181E0D2
:1004E00090E00E94C60182E090E00E94C60102C036
:1004F00080E001C081E0FFEFEF1AFF0A9FEFC91A09
:10050000D90A882309F46CCFDF91CF911F910F9105
:10051000FF90EF90DF90CF90BF90AF90089588EC60
:1005200080937C0080917A00806880937A0064E1F7
:1005300070E080E090E00E945C1180917A0080641D
:1005400080937A0080917A0086FDFCCF60917800DC
:100550007091790080E090E00E94C3142EEA37E2A7
:1005600042EA53E40E94F61326EF38E24CE95FE3D7
:100570000E945B1408958EE480937C0062E070E03A
:1005800080E090E00E945C1180917A00806480930A
:100590007A0080917A0086FDFCCF809178002091CE
:1005A000790030E0322F2227442737FD4095542F21
:1005B000282B60E070E381E190E00E940916CA01F7
:1005C000B90108952F923F924F925F926F927F925E
:1005D0008F929F92AF92BF92CF92DF92EF92FF9253
:1005E0000F931F93CF93DF93CDB7DEB7CA59D109CD
:1005F0000FB6F894DEBF0FBECDBF0E942D11CB56B3
:10060000DF4F6883C559D040CA56DF4F7883C6593B
:10061000D040C956DF4F8883C759D040C856DF4FF6
:100620009883C859D0401092B8021092B902109223
:10063000BA021092BB02E12CF12C60910C01709176
:100640000D01E616F70654F58090B8029090B902B5
:10065000A090BA02B090BB028EE00E94C610BC010E
:10066000882777FD8095982F0E94C5149B01AC01C7
:10067000C501B4010E94F7136093B8027093B902E8
:100680008093BA029093BB0262E070E080E090E059
:100690000E945C112FEFE21AF20ACFCF882777FD74
:1006A0008095982F0E94C5149B01AC016091B802FF
:1006B0007091B9028091BA029091BB020E945B14C2
:1006C0002B013C019B01AC0160E070E88FEF93E4EB
:1006D0000E94F6136B017C0120E030E0A9010E942A
:1006E0007515181624F0F7FAF094F7F8F09420E056
:1006F00030E84FEF53E4C301B2010E94F61320ED3E
:1007000034E448ED5CE30E9479154B015C0120E084
:1007100030E0A9010E947515181664F0C501B401F6
:100720009058C357DF4F688379838A839B83CD5862
:10073000D04008C0C357DF4F88829982AA82BB820B
:10074000CD58D04020E030E046E653E4C501B40186
:100750000E9479154B015C0120E030E0A9010E9464
:100760007515181624F0B7FAB094B7F8B0940E9433
:100770008F02CF56DF4F688379838A839B83C15969
:10078000D0400E94BB02562F372F80E991E0ACEB9E
:10079000B2E0FC011D923197E9F78E010B591F4F12
:1007A00023E042E0CF56DF4F688179818A819B81C7
:1007B000C159D040C656DF4F3883CA59D040C756BA
:1007C000DF4F5883C959D0400E943D16382E292E3C
:1007D0008E01035C1F4F23E042E0C501B4010E947B
:1007E0003D16B82EA92E8E01075D1F4F23E042E073
:1007F000C357DF4F688179818A819B81CD58D04072
:100800000E943D16982E892E8E010B5E1F4F23E00D
:1008100042E0C701B6010E943D16F82EE92E8E0176
:100820000F5F1F4F23E042E0C301B2010E943D165B
:10083000C856DF4FF881C859D040FF93C956DF4FE3
:100840002881C759D0402F93CA56DF4F6881C659B7
:10085000D0406F93CB56DF4F7881C559D0407F93FE
:10086000C656DF4F3881CA59D0403F93C756DF4F35
:100870005881C959D0405F932F923F92AF92BF9257
:100880008F929F92EF92FF929F938F938AE891E0CD
:100890009F938F9381E192E09F938F9385E192E004
:1008A0009F938F9381E08F9380E98F93ACEBB2E0BD
:1008B000BF93AF930E949716F0E0AF2EF1E0BF2EEA
:1008C0000FB6F894DEBF0FBECDBFE12CF12CACEB20
:1008D000CA2EA2E0DA2EBFE58B2EB2E09B2E662454
:1008E000639410E9712ED5018C9111969C91B2E020
:1008F000AB0EB11CEFEFEE1AFE0A9F938F93FF929F
:10090000EF920CEB12E0DF92CF929F928F926F9258
:100910007F92DF92CF920E9497160FB6F894DEBFB7
:100920000FBECDBF73E0E716F104E9F61F930F93F6
:1009300082E892E09F938F9381E08F9380E98F9379
:100940001F930F930E949716D8010D900020E9F78E
:100950008D01015011090C5B1240A8016CEB72E093
:1009600080915204909153040E9474168091520415
:1009700090915304800F911F9093530480935204DD
:100980002091500430915104821B930B0E94320A33
:100990000FB6F894DEBF0FBECDBFC656DF4F0FB601
:1009A000F894DEBF0FBECDBFDF91CF911F910F91A5
:1009B000FF90EF90DF90CF90BF90AF909F908F907F
:1009C0007F906F905F904F903F902F900895CF92BF
:1009D000DF92EF92FF920F931F93CF93DF930E94CA
:1009E0000B080E94610B0097A1F010924F04109227
:1009F0004E042AE834E0309351042093500430939D
:100A00005304209352048C5A9B4F0E94D2010E949F
:100A1000E202CAEAD2E000E010E088819981AA816E
:100A2000BB81892B8A2B8B2B61F10E942D116B01CD
:100A30007C0188819981AA81BB81C816D906EA0602
:100A4000FB0681F00E942D11C880D980EA80FB80CE
:100A50006C197D098E099F096038784A824191405E
:100A6000F8F40FC00E942D11C61AD70AE80AF90A35
:100A700080E8C81688EAD80682E1E80681E0F80630
:100A800078F40F5F1F4F24960330110531F6DF9184
:100A9000CF911F910F91FF90EF90DF90CF9008952D
:100AA000C8010E94C601EDCF10924F0410924E046F
:100AB00080E992E090934D0480934C040895E82FD0
:100AC000F0E093E0F595E7959A95E1F7E059F94F55
:100AD000877041E050E060E070E004C0440F551FB3
:100AE000661F771F8A95D2F78081842B80830895B3
:100AF000CF93C82FC15021F08C2F0E945F05FACFF1
:100B0000CF9108950F931F93CF93DF9300D01F923F
:100B1000CDB7DEB78C0110924D0688E34B83698315
:100B20007A830E94780569817A818AE696E00E943C
:100B30009A084B816AE676E0C8010F900F900F90FB
:100B4000DF91CF911F910F910C94F806EF92FF92D5
:100B50000F931F93CF93DF938B017A01E9011092DA
:100B60004D06009729F0BC0186E696E00E948F08AA
:100B70000115110519F0C8010E94C50AE114F1041C
:100B800029F0B70182E596E00E948F08209729F0AE
:100B9000BE0182E696E00E948F080E94D10A109260
:100BA0004B0610924A0681E0DF91CF911F910F9181
:100BB000FF90EF9008958EBD0DB407FEFDCF089510
:100BC00061E0809192060E941F1278940895F89433
:100BD00060E0809192060C941F121F93CF93DF93D5
:100BE00000D0CDB7DEB7182F4A8369830E94E7058E
:100BF0006981862F8F71812B0E94DB054A81842FAA
:100C00000E94DB050F900F90DF91CF911F910C9404
:100C1000E0051F93CF93DF93182F1076C12FD0E0FC
:100C20002091930630E0C217D307A1F043E06FE1B3
:100C300080EA0E94ED0510939306AE0185E055957C
:100C400047958A95E1F76FE180E8DF91CF911F9199
:100C50000C94ED05DF91CF911F9108951F93CF93D1
:100C6000DF931F92CDB7DEB7182F69830E94090664
:100C70004981612F80E40F90DF91CF911F910C94F7
:100C8000ED051F93CF93DF931F92CDB7DEB7182FDB
:100C900079830E942E067981672F81E0810F0F9062
:100CA000DF91CF911F910C942E06EF92FF920F933C
:100CB0001F93CF93DF9300D0CDB7DEB78C0169834C
:100CC0007A830E94E7058AE70E94DB056981E62EA8
:100CD0007A81F72E0E0D1F1DE016F10631F0F70197
:100CE00081917F010E94DB05F7CF0F900F90DF917C
:100CF000CF911F910F91FF90EF900C94E005EF9230
:100D0000FF920F931F93CF93DF9300D0CDB7DEB741
:100D10008C0169837A830E94E7058AE30E94DB05E0
:100D20006981E62E7A81F72E0E0D1F1DE016F10661
:100D300041F080E00E94DB058EB5F70181937F01D1
:100D4000F5CF0F900F90DF91CF911F910F91FF90F2
:100D5000EF900C94E0051F93CF93DF931F92CDB7D4
:100D6000DEB7182F0E94E705812F8F710E94DB05E7
:100D700080E00E94DB0517FF03C080E00E94DB05D6
:100D80008EB589830E94E00589810F90DF91CF9114
:100D90001F910895CF93C82F0E9409068C2FCF91E1
:100DA0000C94AB0661E08AE00E94E61161E08AE003
:100DB0000E941F1261E08BE00E94E61161E08DE06D
:100DC0000E94E61160E08CE00E94E61161E08BE099
:100DD0000E941F1260E08BE00E941F1260E08DE015
:100DE0000E941F1280E58CBD8DB581608DBD089578
:100DF0000F931F93CF93DF931F92CDB7DEB78B0175
:100E000090939606809395060CB406FC04C0498323
:100E10000E94D20649814093920661E0842F0E948D
:100E2000E6110E94E0054FEF60E08FEF0E94ED05B4
:100E300062E070E080E090E00E945C118DE10E9431
:100E4000AB068823D9F360E070E088E00E94410699
:100E500060E070E08CE00E9441066FEF7BE08AE08A
:100E60000E94410660E07CE084E00E9441066FEF52
:100E700071E186E00E94410661EB88E30E942E0644
:100E80006FE370E388E20E94410669EF77EF80E349
:100E90000E9441066DE080EC0E942E0660E081EC2D
:100EA0000E942E0642E362EC80E80E94ED0562E1BA
:100EB0007CE086EC0E94410662E184EC0E942E06F2
:100EC0006CED75E08AEC0E944106F801608184EEC9
:100ED0000E942E06F801618185EE0E942E06F8011F
:100EE000628182EE0E942E06F801638183EE0E94E9
:100EF0002E06F801648180EE0E942E06F8016581BD
:100F000081EE0E942E0660E184ED0E942E0660E0D4
:100F100071E086ED0E9441068AEE0E94CA0680FDBD
:100F2000FBCF8FE10E94090640EC6BE180E80E9454
:100F3000ED0544E06FE180E80E94ED0582E70E9444
:100F4000CA06863008F08F5F0F90DF91CF911F9116
:100F50000F91089561E184ED0E942E0661E082ED1B
:100F60000E942E068AEE0E94CA0680FDFBCF60E03A
:100F700082ED0E942E0689ED0E94CA0682FB882718
:100F800080F90895CF93DF93EC0140E86FE180E8AA
:100F90000E94ED0540E86FE180EA0E94ED054AE01D
:100FA0006CE180EA0E94ED0560E07CE082E00E9456
:100FB0004106BE01745F86E00E94410640E060E0A9
:100FC0008AE70E94ED0564E574E0CE010E945506B3
:100FD00048E06FE180E80E94ED05C0E0D0E08CE1E0
:100FE0000E94CA068A7029F42196C83E83E0D80779
:100FF000B1F78CE10E94CA0681FD03C0C83ED34010
:1010000038F048E06FE180EADF91CF910C94ED0574
:10101000DF91CF9108950F931F93CF93DF9300D06B
:1010200000D000D0CDB7DEB789E30E94CA0688237E
:1010300009F445C0609190067091910680E00E948D
:101040004106BE016F5F7F4F86E090E00E947F0601
:1010500089819A8190939106809390068B819C81DF
:1010600000919506109196062D8127FF0DC00497DB
:10107000015011098017910708F48C0164E574E0B0
:10108000C8010E947F0602C000E010E0F801EC5A9F
:10109000FB4F108260919006709191066115710569
:1010A00019F46FEF7BE002C0615071098CE00E947F
:1010B000410640E46EE180E80E94ED0502C000E0D8
:1010C00010E0C80126960FB6F894DEBF0FBECDBF64
:1010D000DF91CF911F910F910895CF93C82F88E38F
:1010E0000E94CA06682F616088E30E942E06C11123
:1010F00003C081E080939406CF910895811102C0CE
:101100001092940680919406811108C088E30E9491
:10111000CA06682F6E7F88E30C942E060895FB01A3
:101120004081518162817381FC01408351836283DC
:101130007383089526E0FB01DC0101900D922A954E
:10114000E1F708950F931F93CF93DF9370E06C5AEC
:101150007B4F213021F48A01075F1F4F05C02230E9
:1011600031F48A010250110920E030E003C000E0B0
:1011700010E09801DB01FA01E230F10578F0CC9142
:10118000D0E0DC2FCC2711969C911197C92B0C0F26
:101190001D1F211D311D12963297EECFDA01AE7F51
:1011A000A60FB71F40FF0CC04C9150E060E070E00C
:1011B000762F652F542F4427040F151F261F371F26
:1011C000A90166277727411551056105710519F0B9
:1011D00022273327F1CF00951095E82FF0E0EC5A45
:1011E000FB4F10830183DF91CF911F910F910895E1
:1011F00010926C0410926D0480E480936804109245
:10120000690480936A0420E044E150E06EE088E1E4
:101210000C94A208209178043091760430937804DD
:1012200020937604209179043091770430937904E7
:1012300020937704EEE7F4E0A2E8B4E02291820F75
:10124000911D2E918C93662311F0208301C0108292
:10125000892F992724E0EA37F20781F71092860454
:101260001092870480E5809382040895809164043D
:1012700090E0982F882720916504822B4497209135
:10128000820430E044E0359527954A95E1F7220F36
:10129000331F220F331F821B930B97FF02C080E086
:1012A00090E00895CF93DF93EC01889690936404C7
:1012B000809365040E94F8081092860410928704B7
:1012C000AE01445E5F4F22E06AE182E30E94A20821
:1012D000CE01C696DF91CF910C94C207BC0184E584
:1012E00094E00E949A086AE676E08AE594E00C941D
:1012F0009A088AE594E00E946E096EE674E082E73F
:1013000094E00E948F0866E676E08EE694E00E9404
:101310008F080C94F808262F2061209383046430F2
:1013200021F0009711F481E090E061E00E940A0949
:101330001092640488E2809365040E94790984E035
:10134000809384041092850422E04CE150E06AE12D
:1013500082E30E94A20886E390E00C94C207CF9338
:10136000DF9300D0CDB7DEB769837A830E946E0920
:1013700069817A8182E794E00E948F0866E676E0D0
:101380008EE694E00F900F90DF91CF910C948F0830
:101390001F93CF93DF93EC0184E992E00E946E09E2
:1013A00088E08093600416E01093610448E050E008
:1013B00061E770E082E694E00E945E16E4E7F4E004
:1013C000DF011D921A95E9F76AE676E08AE694E075
:1013D0000E949A08BE018AE794E00E948F0866E6A0
:1013E00076E080E794E00E948F088AE290E0DF9147
:1013F000CF911F910C94C207CF93DF93EB0144E090
:1014000050E0BC0180E794E00E946716892B39F414
:101410006AE674E0CE010E949A0881E001C080E093
:10142000DF91CF910895CF93DF9320916606222319
:10143000A9F0FC012081222389F0E6E6F6E0EC0128
:10144000A2E6B6E0219189919D918227892331F40A
:1014500086E0EA36F807B1F781E001C080E0DF916D
:10146000CF910895CF93DF93EC0160E080919706D0
:10147000909198060E948B0989E180938304CE01A4
:10148000DF91CF910C945209CF92DF92EF92FF92AD
:101490000F931F93CF93DF93F82EE92EEB01D42EF9
:1014A000C52ECB010E94130ABE01882319F084EADD
:1014B00096E002C08AE996E00E94AF092881207F69
:1014C000203E91F0088119812A813B810F3F1F4FF7
:1014D0002F4F3F4F49F044E050E0BE018EE596E0CB
:1014E0000E946716892B31F464E972E084E594E088
:1014F0000E949A0888E0809360041092610449E099
:1015000050E068E670E082E694E00E945E16109279
:10151000640481E180936B04C0927804D0927904D2
:10152000E0927604F092770410927A0410927C0490
:1015300010927D04DF91CF911F910F91FF90EF905A
:10154000DF90CF900895CF93DF93EC014C9690936A
:1015500064048C2F845E809365040E94F808CE0199
:10156000089690937A048C2F885F80937B04AE0159
:10157000405F5F4F21E06AE188E20E94A208CE014D
:101580008A96DF91CF910C94C20710924B0610926D
:101590004A0621E020939906BC018AE596E00C9466
:1015A0008F08CF93DF93E6E6F6E0C2E6D6E0AEE53D
:1015B000B6E0919189918095892B8D9386E0EA36EA
:1015C000F807B9F7DF91CF9108951F93CF93DF9379
:1015D000EB014091780450E0292F30E04217530787
:1015E00009F067C090917904981363C01091830447
:1015F00011FF3BC0109264048CE2809365040E944A
:10160000790982E18093830460E081E090E00E94A8
:101610000A0910927A0410927B0480911A01809337
:101620007C0410927D048D5F80931A0182E0809388
:101630008A0484E080938B0485E080938C0410926C
:101640008D0490E6909382048093840488E78093CD
:10165000850422E040E250E06AE182E30E94A208B1
:101660008AE390E00E94C20724C014FF22C00E94B7
:1016700036099093980680939706892B99F02091CC
:10168000820430E054E0359527955A95E1F7220F12
:10169000331F220F331F2E5D3F4F2897C217D307EA
:1016A00058F407C010FF05C060E080E090E00E94A1
:1016B0008B0980E090E001C0C901DF91CF911F91BB
:1016C0000895EF92FF920F931F93CF93DF931F9292
:1016D000CDB7DEB77C0180914D06882319F0C70194
:1016E0000E94710FE114F10409F0BDC080919906C8
:1016F000857051F080914A0690914B06892B21F418
:101700000E94AA078111C7C080914A0690914B069A
:10171000019690934B0680934A068091B2068130E1
:1017200009F07CC08091990681FF78C082E08093A7
:10173000B20680911B018F5F80931B011091B00650
:101740000091B1068F71F82E8091B30620E2829F3E
:10175000C0011124F82A8EE496E00E94130A6EE478
:1017600076E0882319F084EA96E002C08AE996E0E0
:101770000E94AF09B8E0EB2EE09260041092610481
:1017800049E050E068E670E082E694E00E945E1670
:101790008CE28093650486E080936B040E94F808D5
:1017A00000937804109379048BE080937604F09290
:1017B0007704EAE7F4E0DF011D92EA94E9F780910B
:1017C0001A0180937C048D5F80931A0180E68093D8
:1017D000820482E08093830493E0909384041092C7
:1017E0008504109286041092870410928804109247
:1017F000890480938A0494E090938B0480938C04F2
:1018000086E280938D0422E040E250E06AE182E3C8
:101810000E94A2088AE390E00E94C20782E596E057
:101820000E94130A882341F08091A206811104C00E
:101830008091A3068823C9F18EE496E00E94130AE2
:10184000882309F4D4C18091A0068111D0C1809170
:10185000A1068111CCC18EE496E00E94C80981E006
:101860008093A106C4C1B9E2EB16F10408F4BFC12C
:1018700010916004183009F5809161048630E9F414
:1018800044E050E066E676E08AE794E00E9467165E
:10189000892B99F445C08AE596E00E94C809809199
:1018A00099068860809399062FCF82E596E00E9482
:1018B000C80981E08093A306BFCFFAE2EF16F104D6
:1018C00008F495C1183009F092C18091610481112A
:1018D0008EC180916204853409F089C144E050E0F2
:1018E00066E676E082E794E00E946716892B09F4A9
:1018F00081C044E050E06EE576E082E794E00E942B
:101900006716892B09F476C044E050E064E972E080
:1019100082E794E00E946716892B09F068C16AC0CB
:1019200080916904813029F58AE594E00E946E096E
:101930001092680482E0809369046AE674E084E7A8
:1019400094E00E949A086AE676E08AE694E00E94B3
:101950009A0860E774E08AE794E00E948F0866E6E0
:1019600076E080E794E00E948F088AE290E00E948F
:10197000C2078091990683FF0CC010916904123050
:1019800041F46AE976E08AE596E00E94FC0981115B
:1019900028C08091A20681110CC08091A3068823E3
:1019A00041F064EA76E082E596E00E94FC0981114C
:1019B0001BC08091A00681111AC18091A1068823C5
:1019C00009F415C164EA76E08EE496E00E94FC0911
:1019D000882309F40CC181E08093A0061092A1062F
:1019E00006C110939906D5CF81E08093A20610928C
:1019F000A306DFCF80916B04813009F580917604D6
:101A00008830E9F4E091AA06F091AB06309719F01E
:101A10008EE694E009950E947909109276049091DF
:101A20007804983F28F0809179048F5F809379043F
:101A3000985F90937804C7010E94C207D8C00E94A3
:101A4000010E811105C0E6E3EE16F10430F4CFC0BB
:101A500080916B048131B9F7C4C080916B048630EA
:101A600009F0C5C0809178048B3009F0ACC044E027
:101A700050E06EE476E08EE694E00E946716892BD3
:101A800009F0B5C02091830422FF13C0E091AE0697
:101A9000F091AF06309759F08091790420E030E062
:101AA00040E050E063E0829586958770099585E077
:101AB00078C029830E9436098C018091B206298161
:101AC000823071F5822F807122712231E9F460E059
:101AD00080E090E00E948B0988E180938304E0918C
:101AE000AC06F091AD06309739F08091770482957D
:101AF00086958770099502C080E090E023E02093EE
:101B0000B2060E94520973C091E09093B20681110F
:101B100003C0C801019602C080E090E064E039C0D3
:101B2000833009F041C00115110509F43FC0E0916F
:101B3000AE06F091AF063097C9F14091820450E0B3
:101B400074E0559547957A95E1F7440F551F440F7A
:101B5000551FC70108974E5D5F4F8417950708F41E
:101B6000AC01C801840F951FE816F90620F497010F
:101B7000241B350B01C098018091790460E08295A7
:101B800086958770099580914C06882329F068E036
:101B9000C8010E948B092BC069E0C8010E948B0913
:101BA00086E08093B20623C0853009F120FF06C08D
:101BB0008330E9F069E0C8010196F0CF0115110505
:101BC000B1F060E0E5CFB701809118019091190163
:101BD0000F90DF91CF911F910F91FF90EF900C9498
:101BE000E50AC7010E94080E882309F42CCF80E083
:101BF00090E00F90DF91CF911F910F91FF90EF90A8
:101C0000089581E09091B406911101C080E008959B
:101C1000AF92BF92CF92DF92EF92FF920F931F93FA
:101C2000CF93DF93C5EBD6E079EBC72E76E0D72EC6
:101C3000E12CF12C40E02091B40630E0E216F306EE
:101C4000B4F55A819B812091780430E0A92EB12C03
:101C50002A153B0521F580917904851320C0F601F2
:101C600020812223E1F000917B0410E0085011094B
:101C700020917A0430E0322F2227020F131F409167
:101C8000760450E0542F442720917704422BE881BA
:101C9000F9812EE734E06EE674E0099541E0FFEF4C
:101CA000EF1AFF0A259685E0C80ED11CC4CF842FF9
:101CB000DF91CF911F910F91FF90EF90DF90CF9028
:101CC000BF90AF900895E091E006F091E1069F018A
:101CD0002F5F3F4F3093E1062093E0068083089505
:101CE0001F93CF93DF93C62FD72F182F160F1C17D4
:101CF00021F089910E94630EFACFDF91CF911F915D
:101D00000895CF93DF93EC0186E191E0E4E5F4E000
:101D1000DF019C011D9221503040E1F78091F206D5
:101D2000833019F466E576E002C064E972E043E4CA
:101D300050E084E490E00E94440A64E972E084E5A3
:101D400094E00E949A0881E080937E0480937F044F
:101D500086E0809380044091EE065091EF066091FA
:101D6000F0067091F10640938204509383046093CF
:101D70008404709385048091F206833031F466E622
:101D800076E08AE894E00E948F086AE676E08AE9C5
:101D900094E00E949A088AE695E09093E106809389
:101DA000E0066CE171E086E00E94700E8091F20620
:101DB000811102C081E001C083E00E94630E8DE3C7
:101DC0000E94630E87E00E94630E81E00E94630E12
:101DD0006AE676E086E00E94700E8CE00E94630E58
:101DE0008AE00E94630E62E271E08AE00E94700E57
:101DF0002097A9F082E30E94630E84E00E94630EA4
:101E0000BE0184E00E94700E86E30E94630E84E0AF
:101E10000E94630E66E576E084E00E94700EC09139
:101E2000DF06C11102C0D3E001C0D4E087E30E9405
:101E3000630E8D2F0E94630E81E00E94630E83E08B
:101E40000E94630E86E00E94630ECC2319F08C2F53
:101E50000E94630E8FEF0E94630E8091E0069091C6
:101E6000E1068E579440DF91CF910C94A30A0F9313
:101E70001F93A62F8634910580F120917704233497
:101E800061F50091820410918304209184043091C3
:101E900085044091EE065091EF066091F006709136
:101EA000F1060417150726073707B9F4EEE6F5E043
:101EB0008C5A9B4F9F012E5F3F4F4181508155337C
:101EC00019F452815A1739F0F901E40FF11DE8179E
:101ED000F90780F302C081E001C080E01F910F91FB
:101EE0000895DF92EF92FF920F931F93CF93DF93AA
:101EF00000D000D0CDB7DEB78C018091F2068230E1
:101F000009F497C030F48823D1F1813009F452C02C
:101F100031C1833021F0843009F48BC02BC1809112
:101F2000E2069091E306A091E406B091E5068F3FAA
:101F30009F4FAF4FBF4F09F41DC10E942D1100915B
:101F4000E6061091E7062091E8063091E906601B4D
:101F5000710B820B930B0091E2061091E306209126
:101F6000E4063091E506601771078207930708F4CD
:101F700001C186E696E00E94810E84E0EFC00E94D7
:101F80002D116093EE067093EF068093F006909308
:101F9000F10610926606109267061092680610927B
:101FA000690680E090E00E94810E81E00E946D0849
:101FB00081E0D4C062E0C8010E94370F882311F18C
:101FC0006EE874E0CE0101960E948F08EEE6F5E01F
:101FD0000C5A1B4FBF016E5F7F4F818190819633FA
:101FE00029F486E596E00E948F0806C0FB01E80F01
:101FF000F11DE017F10770F3CE0101960E94810EEA
:1020000082E0ACC00E942D110091EA061091EB060F
:102010002091EC063091ED06601B710B820B930B47
:10202000613177428105910508F4A4C01092F2064F
:10203000A1C065E0C8010E94370F882319F381E031
:102040000E947E086EE874E086E696E00E948F08A3
:10205000EEE6F5E0C8018C5A9B4F7C0180818F0130
:102060000E5F1F4FD1808630B1F048F4813079F097
:10207000833009F044C0B8018AE596E00FC08A3386
:1020800081F08F3F09F44AC08333C9F50AC0B80113
:1020900082E696E003C0B80182E596E00E948F08D0
:1020A0003BC0F80184E040E050E0BA019191222762
:1020B000342F452F562F290F311D411D511D8150A1
:1020C00019F0BA01A901F2CF2093E2063093E3069A
:1020D0004093E4065093E5062F3F9FEF39074907E9
:1020E0005907D1F0A8EEB3E00E94DC156093E20638
:1020F0007093E3068093E4069093E5060DC0E091AB
:10210000DD06F091DE06309739F09091DF068913F5
:1021100003C04D2DB801099580E001C081E0F801B0
:10212000ED0DF11D811104C0EE15FF0508F496CFE9
:102130000E942D116093E6067093E7068093E806EF
:102140009093E90680915A06882321F08AE596E06B
:102150000E94C50A83E08093F2060CC08093F206C9
:102160000E942D116093EA067093EB068093EC06B3
:102170009093ED060F900F900F900F90DF91CF91FD
:102180001F910F91FF90EF90DF9008958E3008F02F
:102190008E5087702091420190E4299F9001112474
:1021A000822B80937C0080917A00806480937A00F7
:1021B00080917A0086FDFCCF809178002091790093
:1021C00090E0922B08951F920F920FB60F92112458
:1021D0002F933F938F939F93AF93BF938091F40678
:1021E0009091F506A091F606B091F7063091F306AE
:1021F00023E0230F2D3720F40196A11DB11D05C04A
:1022000026E8230F0296A11DB11D2093F3068093AB
:10221000F4069093F506A093F606B093F706809126
:10222000F8069091F906A091FA06B091FB06019686
:10223000A11DB11D8093F8069093F906A093FA06AC
:10224000B093FB06BF91AF919F918F913F912F91DA
:102250000F900FBE0F901F9018952FB7F8946091B4
:10226000F4067091F5068091F6069091F7062FBF5F
:1022700008953FB7F8948091F8069091F906A091DF
:10228000FA06B091FB0626B5A89B05C02F3F19F0B2
:102290000196A11DB11D3FBF6627782F892F9A2F68
:1022A000620F711D811D911D42E0660F771F881F0F
:1022B000991F4A95D1F70895CF92DF92EF92FF923E
:1022C000CF93DF936B017C010E943911EB01C114A4
:1022D000D104E104F10479F00E9439116C1B7D0BEB
:1022E000683E7340A0F381E0C81AD108E108F10804
:1022F000C851DC4FECCFDF91CF91FF90EF90DF9092
:10230000CF900895789484B5826084BD84B581604F
:1023100084BD85B5826085BD85B5816085BDEEE6ED
:10232000F0E0808181608083E1E8F0E010828081CC
:1023300082608083808181608083E0E8F0E080813A
:1023400081608083E1EBF0E0808184608083E0EB5A
:10235000F0E0808181608083EAE7F0E08081846042
:10236000808380818260808380818160808380819E
:10237000806880831092C1000895833081F028F432
:10238000813099F08230A1F008958630A9F087302D
:10239000B9F08430D1F4809180008F7D03C08091AA
:1023A00080008F7780938000089584B58F7702C076
:1023B00084B58F7D84BD08958091B0008F7703C070
:1023C0008091B0008F7D8093B0000895CF93DF930C
:1023D00090E0FC01E357FF4F2491FC01EF55FF4FC4
:1023E0008491882349F190E0880F991FFC01E15402
:1023F000FF4FA591B4918B549F4FFC01C591D4918F
:102400009FB7611108C0F8948C91209582238C931A
:10241000888182230AC0623051F4F8948C91322F63
:10242000309583238C938881822B888304C0F89411
:102430008C91822B8C939FBFDF91CF9108950F9346
:102440001F93CF93DF931F92CDB7DEB7282F30E0D5
:10245000F901E758FF4F8491F901E357FF4F1491B9
:10246000F901EF55FF4F04910023C9F0882321F0B3
:1024700069830E94BD116981E02FF0E0EE0FFF1F1C
:10248000EB54FF4FA591B4919FB7F8948C916111D3
:1024900003C01095812301C0812B8C939FBF0F90A7
:1024A000DF91CF911F910F9108950E9482110E9498
:1024B0006001CCE5D3E10E94E7042097E1F30E949C
:1024C0005C13F9CFCF92DF92EF92FF920F931F939D
:1024D000CF93DF936C017A01EB01E60EF71E00E06B
:1024E00010E0CE15DF0561F06991D601ED91FC9108
:1024F0000190F081E02DC6010995080F191FF1CF59
:10250000C801DF91CF911F910F91FF90EF90DF9065
:10251000CF900895FC0124853585F901E05CFF4FDB
:1025200080819181F901EE5BFF4F20813181821B17
:10253000930B8F7399270895FC0184859585FC0181
:10254000E05CFF4F40815181FC01EE5BFF4F208139
:1025500031814217530741F00190F081E02DE80FDF
:10256000F91F808190E008958FEF9FEF0895FC019F
:1025700084859585FC01E05CFF4F40815181FC0121
:10258000EE5BFF4F208131814217530779F0A08124
:10259000B181A80FB91F8C91208131812F5F3F4FEE
:1025A0002F7333273183208390E008958FEF9FEFBF
:1025B0000895FC0181A1882329F0A489B5898C9113
:1025C00086FFFBCF11A20895CF93DF93FC012685F0
:1025D0003785D901A05CBF4F8D919C9111970196D1
:1025E0008F739927E901CE5BDF4F488159818417AA
:1025F0009507D9F30D90BC91A02DA20FB31F6C933A
:10260000A685B785A05CBF4F11969C938E93A68933
:10261000B7892C9181E090E0078C02C0880F991F48
:102620000A94E2F7282B2C9381E081A30488F58992
:10263000E02D80818064808381E090E0DF91CF9104
:10264000089508951F920F920FB60F9211242F93A1
:102650003F934F938F939F93EF93FF938091C0008D
:1026600082FD1CC04091C6008091A2079091A307F3
:1026700001968F7399272091A4073091A50782179F
:10268000930771F0E091A207F091A307EE59F84F7C
:1026900040839093A3078093A20702C08091C60055
:1026A000FF91EF919F918F914F913F912F910F90BB
:1026B0000FBE0F901F9018958CEF96E00E948A1223
:1026C000892B11F00C94211308951F920F920FB6CD
:1026D0000F9211242F933F938F939F93EF93FF9328
:1026E00020915E0730915F078091600790916107AC
:1026F0002817390731F48091C1008F7D8093C10084
:1027000014C0E0916007F0916107E25EF84F20810C
:10271000809160079091610701968F73992790933C
:102720006107809360072093C600FF91EF919F910E
:102730008F913F912F910F900FBE0F901F90189582
:102740001092FF061092FE0688EE93E0A0E0B0E043
:102750008093000790930107A0930207B0930307AB
:102760008EE992E09093FD068093FC0682E697E066
:1027700090930907809308078EE197E090930B07E9
:1027800080930A0785EC90E090930D0780930C07E7
:1027900084EC90E090930F0780930E0780EC90E01C
:1027A000909311078093100781EC90E090931307AA
:1027B0008093120782EC90E09093150780931407A2
:1027C00086EC90E0909317078093160784E080933F
:1027D000180783E08093190787E080931A0785E044
:1027E00080931B0781E080931C0708955058BB27F6
:1027F000AA270ED040C131D130F036D120F031F4CB
:102800009F3F11F41EF426C10EF4E095E7FB1CC1B6
:10281000E92F42D180F3BA1762077307840795073F
:1028200018F071F49EF55AC10EF4E0950B2EBA2FF4
:10283000A02D0B01B90190010C01CA01A0011124C6
:10284000FF27591B99F0593F50F4503E68F11A1672
:10285000F040A22F232F342F4427585FF3CF469503
:1028600037952795A795F0405395C9F77EF41F1625
:10287000BA0B620B730B840BBAF09150A1F0FF0FEF
:10288000BB1F661F771F881FC2F70EC0BA0F621FDB
:10289000731F841F48F4879577956795B795F795CB
:1028A0009E3F08F0B3CF9395880F08F09927EE0F5D
:1028B0009795879508950CD0DEC0D6D040F0CDD046
:1028C00030F021F45F3F19F0BFC0511108C1C2C000
:1028D000E3D098F39923C9F35523B1F3951B550B16
:1028E000BB27AA2762177307840738F09F5F5F4FE3
:1028F000220F331F441FAA1FA9F333D00E2E3AF024
:10290000E0E830D091505040E695001CCAF729D03D
:10291000FE2F27D0660F771F881FBB1F261737078C
:102920004807AB07B0E809F0BB0B802DBF01FF27BC
:1029300093585F4F2AF09E3F510568F085C0CFC085
:102940005F3FECF3983EDCF3869577956795B795F6
:10295000F7959F5FC9F7880F911D9695879597F911
:102960000895E1E0660F771F881FBB1F621773078A
:102970008407BA0720F0621B730B840BBA0BEE1F9F
:1029800088F7E0950895E89409C097FB3EF4909588
:102990008095709561957F4F8F4F9F4F9923A9F038
:1029A000F92F96E9BB279395F695879577956795C7
:1029B000B795F111F8CFFAF4BB0F11F460FF1BC00B
:1029C0006F5F7F4F8F4F9F4F16C0882311F096E99E
:1029D00011C0772321F09EE8872F762F05C066234C
:1029E00071F096E8862F70E060E02AF09A95660F05
:1029F000771F881FDAF7880F9695879597F90895BE
:102A0000990F0008550FAA0BE0E8FEEF16161706FF
:102A1000E807F907C0F012161306E407F50798F067
:102A2000621B730B840B950B39F40A2661F0232B80
:102A3000242B252B21F408950A2609F4A140A695FC
:102A40008FEF811D811D089597F99F6780E870E0E1
:102A500060E008959FEF80EC089500240A94161614
:102A6000170618060906089500240A94121613067C
:102A7000140605060895092E0394000C11F488230A
:102A800052F0BB0F40F4BF2B11F460FF04C06F5F26
:102A90007F4F8F4F9F4F089557FD9058440F551FFC
:102AA00059F05F3F71F04795880F97FB991F61F0D0
:102AB0009F3F79F087950895121613061406551F47
:102AC000F2CF4695F1DF08C0161617061806991FB3
:102AD000F1CF86957105610508940895E894BB27A8
:102AE00066277727CB0197F908958ADF08F48FEFDF
:102AF00008950BD0C0CFB1DF28F0B6DF18F09523D2
:102B000009F0A2CFA7CF1124EACFC6DFA0F3959F8B
:102B1000D1F3950F50E0551F629FF001729FBB27C4
:102B2000F00DB11D639FAA27F00DB11DAA1F649F70
:102B30006627B00DA11D661F829F2227B00DA11D23
:102B4000621F739FB00DA11D621F839FA00D611DA9
:102B5000221F749F3327A00D611D231F849F600DCA
:102B6000211D822F762F6A2F11249F5750408AF003
:102B7000E1F088234AF0EE0FFF1FBB1F661F771F8F
:102B8000881F91505040A9F79E3F510570F05CCFCF
:102B9000A6CF5F3FECF3983EDCF38695779567957B
:102BA000B795F795E7959F5FC1F7FE2B880F911DAD
:102BB0009695879597F908950E942816A59F900DE0
:102BC000B49F900DA49F800D911D11240895A1E242
:102BD0001A2EAA1BBB1BFD010DC0AA1FBB1FEE1F97
:102BE000FF1FA217B307E407F50720F0A21BB30BE2
:102BF000E40BF50B661F771F881F991F1A9469F75E
:102C000060957095809590959B01AC01BD01CF01B9
:102C10000895052E97FB1EF400940E94201657FD80
:102C200007D00E94E71507FC03D04EF40C94201641
:102C300050954095309521953F4F4F4F5F4F0895E8
:102C400090958095709561957F4F8F4F9F4F089518
:102C5000A29FB001B39FC001A39F700D811D1124DD
:102C6000911DB29F700D811D1124911D0895EE0FCD
:102C7000FF1F0590F491E02D0994EF920F931F939D
:102C8000CF93DF93E80147FF02C034E101C034E095
:102C9000E42FFF27E7FDF095F7FF03C0F195E195DD
:102CA000F109E32E022F2E2FAE010E949918CE01BA
:102CB000DF91CF911F910F91EF900895FB01DC01FF
:102CC00002C005900D9241505040D8F70895FB0185
:102CD000DC0104C08D910190801921F441505040D5
:102CE000C8F7881B990B0895FB01DC0102C0019015
:102CF0000D9241505040D8F70895FB015191552352
:102D0000A9F0BF01DC014D9145174111E1F759F4DC
:102D1000CD010190002049F04D9140154111C9F3BA
:102D2000FB014111EFCF81E090E001970895AEE003
:102D3000B0E0EDE9F6E10C94A31B0D891E898F89A3
:102D4000988D26E02C831A83098397FF02C080E0C8
:102D500090E801979E838D83AE01455E5F4F698D3C
:102D60007A8DCE0101960E94C7164D815E8157FD76
:102D70000AC02F813885421753070CF49A01F801D5
:102D8000E20FF31F10822E96E4E00C94BF1BACE020
:102D9000B0E0EDECF6E10C94951B7C016B018A012F
:102DA000FC0117821682838181FFBDC1CE0101968D
:102DB0004C01F7019381F60193FD859193FF819179
:102DC0006F01882309F4ABC1853239F493FD8591F5
:102DD00093FF81916F01853229F4B70190E00E9441
:102DE000051BE7CF512C312C20E02032A0F48B3290
:102DF00069F030F4803259F0833269F420612CC0DC
:102E00008D3239F0803339F4216026C0226024608D
:102E100023C0286021C027FD27C030ED380F3A308D
:102E200078F426FF06C0FAE05F9E300D1124532E81
:102E300013C08AE0389E300D1124332E20620CC05E
:102E40008E3221F426FD6BC1206406C08C3611F44D
:102E5000206802C0883641F4F60193FD859193FF06
:102E600081916F018111C1CF982F9F7D955493302F
:102E700028F40C5F1F4FFFE3F9830DC0833631F058
:102E8000833771F0833509F05BC022C0F80180817F
:102E900089830E5F1F4F44244394512C540115C065
:102EA0003801F2E06F0E711CF801A080B18026FF9E
:102EB00003C0652D70E002C06FEF7FEFC5012C8766
:102EC0000E94FA1A2C0183012C852F77222E17C01D
:102ED0003801F2E06F0E711CF801A080B18026FF6E
:102EE00003C0652D70E002C06FEF7FEFC5012C8736
:102EF0000E94EF1A2C012C852068222E830123FCCE
:102F00001BC0832D90E048165906B0F4B70180E24B
:102F100090E00E94051B3A94F4CFF50127FC8591BF
:102F200027FE81915F01B70190E00E94051B3110DF
:102F30003A94F1E04F1A51084114510471F7E5C079
:102F4000843611F0893639F5F80127FF07C0608112
:102F50007181828193810C5F1F4F08C060817181F4
:102F6000882777FD8095982F0E5F1F4F2F76B22E02
:102F700097FF09C090958095709561957F4F8F4F11
:102F80009F4F2068B22E2AE030E0A4010E94371B38
:102F9000A82EA81844C0853729F42F7EB22E2AE027
:102FA00030E025C0F22FF97FBF2E8F36C1F018F424
:102FB000883579F0B4C0803719F0883721F0AFC078
:102FC0002F2F2061B22EB4FE0DC08B2D8460B82E41
:102FD00009C024FF0AC09F2F9660B92E06C028E0C2
:102FE00030E005C020E130E002C020E132E0F8012D
:102FF000B7FE07C060817181828193810C5F1F4F92
:1030000006C06081718180E090E00E5F1F4FA401D7
:103010000E94371BA82EA818FB2DFF77BF2EB6FEE7
:103020000BC02B2D2E7FA51450F4B4FE0AC0B2FCA9
:1030300008C02B2D2E7E05C07A2C2B2D03C07A2C98
:1030400001C0752C24FF0DC0FE01EA0DF11D808129
:10305000803311F4297E09C022FF06C07394739453
:1030600004C0822F867809F0739423FD13C020FFDB
:1030700006C05A2C731418F4530C5718732C73147D
:1030800068F4B70180E290E02C870E94051B7394DE
:103090002C85F5CF731410F4371801C0312C24FFA0
:1030A00012C0B70180E390E02C870E94051B2C859D
:1030B00022FF17C021FF03C088E590E002C088E727
:1030C00090E0B7010CC0822F867859F021FD02C034
:1030D00080E201C08BE227FD8DE2B70190E00E9403
:1030E000051BA51438F4B70180E390E00E94051B8E
:1030F0005A94F7CFAA94F401EA0DF11D8081B7012B
:1031000090E00E94051BA110F5CF332009F451CEA9
:10311000B70180E290E00E94051B3A94F6CFF701D8
:103120008681978102C08FEF9FEF2C96E2E10C948D
:10313000B11B6F927F929F92AF92BF92CF92DF921C
:10314000EF92FF920F931F93CF93DF93CDB7DEB72C
:1031500029970FB6F894DEBF0FBECDBF6A01B22E1D
:10316000102F0C3320F4FF24F394F00E02C04CE334
:10317000F42E0F2D27E0AE014F5F5F4F0E94171A0C
:103180007981272F2970213031F0E1FC06C0E0FC65
:1031900006C060E005C06DE203C06BE201C060E202
:1031A000AE2DA07173FF36C0662311F084E001C01C
:1031B00083E08B1510F4B81A01C0B12CA1110BC01B
:1031C000F6018B2D90E2882319F091938150FBCF6B
:1031D000CB0CD11CB12C662331F0F6016083960133
:1031E0002F5F3F4F6901C6010396E2FE05C02EE442
:1031F000F601208331E404C02EE6F601208331E697
:1032000031832283FC012B2D30E22223F1F1319313
:103210002150FBCF72FF40C0662311F084E001C053
:1032200083E08B1510F4B81A01C0B12CA1110BC0AA
:10323000F6018B2D90E2882319F091938150FBCFFA
:10324000CB0CD11CB12C662331F0F60160839601C2
:103250002F5F3F4F6901C6010396E2FE07C029E4D4
:10326000F60120832EE4218326E406C029E6F60138
:1032700020832EE6218326E62283FC012B2D30E2DB
:10328000222319F031932150FBCFFC01EB0DF11DEE
:1032900010828EEF9FEFB7C0B1E0611101C0B0E0C6
:1032A0004B2F50E01816190624F49C012F5F3F4F56
:1032B00002C021E030E0240F351F112329F0412FF7
:1032C00050E04F5F5F4F02C040E050E0420F531F9D
:1032D0002B2D30E04217530714F4B41A01C0B12C5F
:1032E0002E2D287159F4F6012B2D30E2222319F0EE
:1032F00031932150FBCFCB0CD11CB12CBB2331F02F
:10330000F601608396012F5F3F4F6901A1110BC049
:10331000F6012B2D30E3222319F031932150FBCFFE
:10332000CB0CD11CB12CF80E0A81372F3071A32E93
:1033300074FF03C0013309F4FA941F142CF42F2DE9
:10334000293018F028E001C021E0682F392F97FFBD
:1033500002C060E030E0462F532F612C712C3EE21A
:10336000932EBC01621B71099B01DC01A41BB50BF0
:10337000E1E0F0E0EC0FFD1FAE0FBF1FE12EF12CDE
:10338000F194E194F1084F3FFFEF5F0731F4F6014C
:103390009082B6016F5F7F4F6B01841795074CF0E9
:1033A0002417350734F4BD01660D771DFB0111812B
:1033B00001C010E341505109FFEF6F1A7F0AB601B7
:1033C0006F5F7F4F4E155F0524F0F60110836B0190
:1033D000DACF4817590739F4063320F4053319F4C6
:1033E000A11001C011E3F6011083FB018B2D90E2C7
:1033F000882319F091938150FBCFFB01EB0DF11D58
:10340000108280E090E029960FB6F894DEBF0FBEE0
:10341000CDBFDF91CF911F910F91FF90EF90DF9083
:10342000CF90BF90AF909F907F906F90089528307D
:1034300008F027E03327DA01990F311D87FD9160ED
:1034400000966105710539F432602E5F3D9330E3DB
:103450002A95E1F708959F3F30F0803871056105A6
:1034600009F03C5F3C5F3D93913008F08068911D0E
:10347000DF93CF931F930F93FF92EF92192F987FB3
:103480009695E92F96959695E90FFF27ED5DFE4FEE
:1034900099273327EE24FF24A701E701059008941C
:1034A000079428F4360FE71EF81E491F511D660FBA
:1034B000771F881F991F0694A1F70590079428F499
:1034C000E70EF81E491F561FC11D770F881F991F51
:1034D000661F0694A1F70590079428F4F80E491F7B
:1034E000561FC71FD11D880F991F661F771F06948F
:1034F000A1F70590079420F4490F561FC71FD81F46
:10350000990F661F771F881F0694A9F7849110955D
:10351000177041F0D695C79557954795F794E7945E
:103520001A95C1F7E9ECF0E0689415901591359182
:103530006591959105907FE27395E118F10A430B2F
:10354000560BC90BD009C0F7E10CF11E431F561FE3
:10355000C91FD01D7EF4703311F48A95E6CFE8942C
:10356000015030F0080F0AF40027021708F4202F4A
:103570002395022F7A3328F079E37D932A95E9F792
:1035800010C07D932A9589F606949795679537958F
:1035900017951794E118F10A430B560BC90BD00984
:1035A00098F023957E9173957A3308F070E37C93BD
:1035B0002013B8F77E9170617D9330F0839571E3AD
:1035C0007D9370E32A95E1F71124EF90FF900F911E
:1035D0001F91CF91DF91992787FD90950895FC0168
:1035E0000590615070400110D8F7809590958E0F2E
:1035F0009F1F0895FC016150704001900110D8F7A1
:10360000809590958E0F9F1F08950F931F93CF93D2
:10361000DF93182F092FEB018B8181FD03C08FEF02
:103620009FEF20C082FF10C04E815F812C813D81C1
:10363000421753077CF4E881F9819F012F5F3F4FC8
:1036400039832883108306C0E885F985812F099581
:10365000892B29F72E813F812F5F3F4F3F832E8398
:10366000812F902FDF91CF911F910F910895FA0133
:10367000AA27283051F1203181F1E8946F936E7FB1
:103680006E5F7F4F8F4F9F4FAF4FB1E03ED0B4E0A2
:103690003CD0670F781F891F9A1FA11D680F791FE3
:1036A0008A1F911DA11D6A0F711D811D911DA11DF4
:1036B00020D009F468943F912AE0269F1124301904
:1036C000305D3193DEF6CF010895462F4770405D9F
:1036D0004193B3E00FD0C9F7F6CF462F4F70405D4E
:1036E0004A3318F0495D31FD4052419302D0A9F7A9
:1036F000EACFB4E0A6959795879577956795BA95A3
:10370000C9F700976105710508959B01AC010A2E68
:1037100006945795479537952795BA95C9F7620F3F
:10372000731F841F951FA01D08952F923F924F92E3
:103730005F926F927F928F929F92AF92BF92CF9241
:10374000DF92EF92FF920F931F93CF93DF93CDB74A
:10375000DEB7CA1BDB0B0FB6F894DEBF0FBECDBFC2
:1037600009942A88398848885F846E847D848C8493
:103770009B84AA84B984C884DF80EE80FD800C819C
:103780001B81AA81B981CE0FD11D0FB6F894DEBF7F
:0C3790000FBECDBFED010895F894FFCFEF
:10379C000100010001000700010002006400C0A844
:1037AC00020CDEAD1212121250000A016382536336
:1037BC00350141726475696E6F2D30300000000068
:1037CC0000000000000000000000000000000000ED
:1037DC00000001736F66745F7265736574006576C3
:1037EC00315F6F6E006576315F6F666600657632AD
:1037FC005F6F6E006576325F6F6666006576335F6D
:10380C006F6E006576335F6F666600616C6C5F6F20
:10381C006E00616C6C5F6F6666000D0A3C62722F05
:10382C003E0D0A706F7765724144433A25730D0A59
:10383C003C62722F3E0D0A706F7765723A25730DDC
:10384C000A3C62722F3E0D0A63757272656E743A91
:10385C0025730D0A3C62722F3E0D0A7761747473E6
:10386C003A25730D0A3C62722F3E0D0A6174656D28
:10387C00703A25730D0A3C62722F3E0D0A61766315
:10388C00633A25640D0A3C62722F3E0D0A6D696C19
:10389C006C69733A256C750D083C62722F3E0D0AEB
:1038AC0000312E3500485454502F312E31203230F7
:1038BC0030204F4B0D0A436F6E74656E742D547926
:1038CC0070653A20746578742F68746D6C0D0A52AB
:1038DC006566726573683A2031350D0A0D0A3C68CD
:1038EC00746D6C3E0D0A76657273696F6E3A0025C5
:1038FC007365737461646F5F646973706F736974FB
:10390C0069766F25643A25640D0A3C62722F3E0D70
:10391C000A0025733C2F68746D6C3E00000000009B
:10392C000E016212FFFFFFFFFFFF00000000E41218
:0A393C0062128A12B7129C12D9120F
:00000001FF
